:100000000C942A000C9447000C9447000C94470071
:100010000C9447000C9447000C9447000C94470044
:100020000C949E130C9418370C9447000C944700C2
:100030000C9447000C9447000C9447000C94470024
:100040000C9447000C9447000C9447000C94470014
:100050000C94470011241FBECFE5D4E0DEBFCDBF16
:1000600013E0A0E6B0E0E6E9F3E802C005900D92E7
:10007000A232B107D9F713E0A2E2B3E001C01D92AA
:10008000A135B107E1F70E9417070C94C9410C9400
:100090000000EF92FF920F931F937B018C0120E0F1
:1000A00030E040E05FE40E94F50388238CF0C80153
:1000B000B70120E030E040E05FE40E94C1010E940F
:1000C00055049B01AC01205030404040504806C0D0
:1000D000C801B7010E9455049B01AC01B901CA01D6
:1000E0001F910F91FF90EF900895A0E0B0E0EBE733
:1000F000F0E00C94523EDC012B01FA019C9192300D
:1001000008F439C1EB018881823008F433C194309E
:1001100069F4843009F02FC111969C91119789815F
:10012000981709F428C1A8ECB1E025C1843009F47E
:1001300021C18230A9F4923009F01DC19A01AD01AC
:1001400088E0EA010990AE01E90109929E0181501F
:10015000C1F7E201898111969C918923818308C1AD
:10016000923009F407C112962D903C901397EB0141
:100170008A819B811496AD90BD90CD90DC901797AD
:10018000EC80FD800E811F819101281B390BB90184
:1001900037FF04C066277727621B730B6032710537
:1001A0000CF061C0121613066CF537014801062EDB
:1001B00004C096948794779467940A94D2F721E0C8
:1001C00030E040E050E004C0220F331F441F551FB1
:1001D0006A95D2F721503040404050402E213F21B7
:1001E00040235123211531054105510521F021E01E
:1001F00030E040E050E079018A01E628F72808293C
:1002000019293CC0232BD1F1260E371E350146019A
:10021000062E04C096948794779467940A94D2F734
:1002200021E030E040E050E004C0220F331F441FC3
:10023000551F6A95D2F721503040404050402A2146
:100240003B214C215D21211531054105510521F04E
:1002500021E030E040E050E059016A01A628B728CB
:10026000C828D9280BC0821593052CF01C01AA249C
:10027000BB24650103C0EE24FF24870111969C91E5
:10028000D20111968C91981709F445C0992339F041
:10029000A80197012A193B094C095D0906C0A6016E
:1002A00095012E193F09400B510B57FD08C01182D3
:1002B0003382228224833583468357831DC081E0A5
:1002C00081833382228288279927DC01821B930B4A
:1002D000A40BB50B84839583A683B7830DC0220F2F
:1002E000331F441F551F24833583468357838281E0
:1002F000938101979383828324813581468157813D
:10030000DA01C9010197A109B1098F5F9F4FAF4F72
:10031000BF4328F30BC0918333822282EA0CFB1C7B
:100320000C1D1D1DE482F5820683178383E0808304
:10033000248135814681578157FF1AC0C901AA27F8
:1003400097FDA095BA2F81709070A070B0705695EF
:10035000479537952795822B932BA42BB52B848318
:100360009583A683B7838281938101969383828349
:10037000DF0101C0D201CD01CDB7DEB7E2E10C94BF
:100380006E3EA0E2B0E0E7ECF1E00C945E3E6983E3
:100390007A838B839C832D833E834F835887E9E048
:1003A000EE2EF12CEC0EFD1ECE010196B7010E943F
:1003B00046068E010F5E1F4FCE010596B8010E94C2
:1003C00046068A8991E089278A8BC701B801AE0168
:1003D000475E5F4F0E9475000E947105A096E6E09F
:1003E0000C947A3EA0E2B0E0E8EFF1E00C945E3EBF
:1003F00069837A838B839C832D833E834F835887C5
:10040000F9E0EF2EF12CEC0EFD1ECE010196B701A6
:100410000E9446068E010F5E1F4FCE010596B80161
:100420000E944606C701B801AE01475E5F4F0E94B9
:1004300075000E947105A096E6E00C947A3EA0E259
:10044000B0E0E5E2F2E00C94523E69837A838B835C
:100450009C832D833E834F835887CE010196BE0136
:10046000675F7F4F0E944606CE010596BE016F5E14
:100470007F4F0E9446069985923088F089898230A4
:10048000C8F0943019F4823051F404C0843029F457
:10049000923081F488EC91E0C6C0923049F420E0BB
:1004A0009A858A89981321E02A87CE010996BBC0D4
:1004B000823049F420E09A858A89981321E02A8BBA
:1004C000CE014196B0C02D843E844F8458886D88FB
:1004D0007E888F88988CEE24FF248701AA24BB2471
:1004E000650140E050E060E070E0E0E0F0E0C10174
:1004F00081709070892BE9F0E60CF71C081D191D1E
:100500009A01AB012A0D3B1D4C1D5D1D80E090E062
:10051000A0E0B0E0E614F7040805190520F481E036
:1005200090E0A0E0B0E0BA01A901480F591F6A1F8E
:100530007B1FAA0CBB1CCC1CDD1C97FE08C081E0F5
:1005400090E0A0E0B0E0A82AB92ACA2ADB2A3196B6
:10055000E032F10549F0660C771C881C991C569412
:10056000479437942794C3CFFA85EA892B893C892D
:100570008B859C85280F391F2E5F3F4F17C0CA01FE
:1005800081709070892B61F016950795F794E79428
:1005900080E090E0A0E0B0E8E82AF92A0A2B1B2BC3
:1005A00076956795579547952F5F3F4F77FDE7CF36
:1005B0000CC0440F551F661F771F17FD4160EE0CDE
:1005C000FF1C001F111F21503040403090E05907A0
:1005D00090E0690790E4790760F32B8F3C8FDB0193
:1005E000CA018F779070A070B07080349105A1051A
:1005F000B10561F447FD0AC0E114F10401051105DC
:1006000029F0405C5F4F6F4F7F4F40781A8EFE1786
:1006100011F081E08A8F4D8F5E8F6F8F78A383E01A
:10062000898FCE0149960E947105A096E2E10C9453
:100630006E3EA8E1B0E0EFE1F3E00C945A3E69832E
:100640007A838B839C832D833E834F835887B9E0C5
:10065000EB2EF12CEC0EFD1ECE010196B7010E948F
:1006600046068E010F5E1F4FCE010596B8010E940F
:1006700046062985223008F47EC03989323010F4CC
:10068000B8017CC08A859A8989278A87243011F02D
:10069000223031F4231709F06EC068EC71E06EC0AF
:1006A000343039F41D861E861F86188A1C861B86E8
:1006B00004C0323021F484E08987B7015FC02B8504
:1006C0003C858B899C89281B390B3C872B87ED84C3
:1006D000FE840F851889AD88BE88CF88D88CEA142F
:1006E000FB040C051D0540F4EE0CFF1C001F111F40
:1006F000215030403C872B8720E030E040E050E044
:1007000080E090E0A0E0B0E460E070E0EA14FB0478
:100710000C051D0540F0282B392B4A2B5B2BEA18C2
:10072000FB080C091D09B695A79597958795EE0CC2
:10073000FF1C001F111F6F5F7F4F6F31710531F775
:10074000DA01C9018F779070A070B0708034910584
:10075000A105B10561F427FD0AC0E114F10401050A
:10076000110529F0205C3F4F4F4F5F4F20782D87B8
:100770003E874F87588BBE01675F7F4FCB010E943A
:1007800071056896EAE00C94763EA8E1B0E0EBECE7
:10079000F3E00C945E3E69837A838B839C832D8384
:1007A0003E834F83588789E0E82EF12CEC0EFD1E26
:1007B000CE010196B7010E9446068E010F5E1F4FC3
:1007C000CE010596B8010E9446068985823040F028
:1007D0008989823028F0C701B8010E94BE0601C095
:1007E0008FEF6896E6E00C947A3EA8E1B0E0EBEF7C
:1007F000F3E00C945E3E69837A838B839C832D8324
:100800003E834F83588789E0E82EF12CEC0EFD1EC5
:10081000CE010196B7010E9446068E010F5E1F4F62
:10082000CE010596B8010E9446068985823040F0C7
:100830008989823028F0C701B8010E94BE0601C034
:100840008FEF6896E6E00C947A3EA8E1B0E0EBE228
:10085000F4E00C945E3E69837A838B839C832D83C2
:100860003E834F83588789E0E82EF12CEC0EFD1E65
:10087000CE010196B7010E9446068E010F5E1F4F02
:10088000CE010596B8010E9446068985823040F067
:100890008989823028F0C701B8010E94BE0601C0D4
:1008A00081E06896E6E00C947A3EACE0B0E0EBE5DF
:1008B000F4E00C94623E69837A838B839C83CE013F
:1008C0000196BE016B5F7F4F0E9446068D8182308C
:1008D00061F1823050F1843021F48E81882351F10E
:1008E0002EC02F81388537FD20C06E812F31310514
:1008F0001CF06623F9F023C08EE190E0821B930B7D
:1009000029853A854B855C8504C056954795379572
:1009100027958A95D2F76623B1F05095409530958A
:1009200021953F4F4F4F5F4F0EC020E030E040E039
:1009300050E009C02FEF3FEF4FEF5FE704C020E02A
:1009400030E040E050E8B901CA012C96E2E00C9496
:100950007E3EA8E0B0E0EFEAF4E00C945A3E7B0162
:100960008C01611571058105910519F482E0898377
:1009700060C083E089838EE1C82ED12CDC82CB82DB
:10098000ED82FE820F831887C801B7010E942205FD
:10099000FC013197F7FF3BC0222733272E1B3F0B6B
:1009A00057016801022E04C0D694C794B794A79447
:1009B0000A94D2F740E050E060E070E081E090E01F
:1009C000A0E0B0E004C0880F991FAA1FBB1F2A95A2
:1009D000D2F70197A109B1098E219F21A023B1234C
:1009E0000097A105B10521F041E050E060E070E022
:1009F0004A295B296C297D294D835E836F83788723
:100A00008EE190E08E1B9F0B9C838B8312C03097EE
:100A100081F00E2E04C0EE0CFF1C001F111F0A9463
:100A2000D2F7ED82FE820F831887CE1ADF0ADC82AE
:100A3000CB821A82CE0101960E9471052896EAE0C7
:100A40000C94763EEF92FF920F931F937B018C01E3
:100A500080E0E81680E0F80681E0080780E01807EB
:100A600088F48FEFE816F1040105110531F028F044
:100A700088E090E0A0E0B0E017C080E090E0A0E067
:100A8000B0E012C080E0E81680E0F80680E00807D9
:100A900081E0180728F088E190E0A0E0B0E004C011
:100AA00080E190E0A0E0B0E020E230E040E050E003
:100AB000281B390B4A0B5B0B04C016950795F7945E
:100AC000E7948A95D2F7F701E053FE4F8081281B07
:100AD000310941095109C9011F910F91FF90EF9010
:100AE0000895DF92EF92FF920F931F93FC01E48031
:100AF000F58006811781D1808081823048F480E0C2
:100B000090E0A0E1B0E0E82AF92A0A2B1B2BA5C04F
:100B1000843009F49FC0823021F4EE24FF24870141
:100B200005C0E114F1040105110519F4E0E0F0E05D
:100B300096C0628173819FEF623879070CF05BC0C9
:100B400022E83FEF261B370B2A3131052CF020E03D
:100B500030E040E050E02AC0B801A701022E04C0F6
:100B600076956795579547950A94D2F781E090E07E
:100B7000A0E0B0E004C0880F991FAA1FBB1F2A95F0
:100B8000D2F70197A109B1098E219F21A023B1239A
:100B90000097A105B10521F081E090E0A0E0B0E070
:100BA0009A01AB01282B392B4A2B5B2BDA01C901A7
:100BB0008F779070A070B07080349105A105B10559
:100BC00039F427FF09C0205C3F4F4F4F5F4F04C0EF
:100BD000215C3F4F4F4F5F4FE0E0F0E02030A0E05E
:100BE0003A07A0E04A07A0E45A0710F0E1E0F0E07D
:100BF00079018A0127C06038710564F5FB01E1586D
:100C0000FF4FD801C7018F779070A070B07080340B
:100C10009105A105B10539F4E7FE0DC080E490E02F
:100C2000A0E0B0E004C08FE390E0A0E0B0E0E80E08
:100C3000F91E0A1F1B1F17FF05C016950795F7948D
:100C4000E794319687E016950795F794E7948A958F
:100C5000D1F705C0EE24FF248701EFEFF0E06E2FFF
:100C6000679566276795902F9F77D794DD24D79453
:100C70008E2F8695492F462B582F5D29B701CA0123
:100C80001F910F91FF90EF90DF900895FC01DB0121
:100C9000408151812281622F6F7770E0221F2227CD
:100CA000221F9381892F880F822B282F30E0991FD4
:100CB0009927991F11969C93119721153105A9F534
:100CC000411551056105710511F482E037C082E8D4
:100CD0009FEF13969C938E9312979A01AB0167E056
:100CE000220F331F441F551F6A95D1F783E08C9361
:100CF0000DC0220F331F441F551F12968D919C91DA
:100D00001397019713969C938E931297203080E04F
:100D1000380780E0480780E4580758F314962D936D
:100D20003D934D935C93179708952F3F310579F4C8
:100D3000411551056105710519F484E08C930895FE
:100D400064FF03C081E08C9312C01C9210C02F5727
:100D5000304013963C932E93129783E08C9387E058
:100D6000440F551F661F771F8A95D1F7706414963C
:100D70004D935D936D937C93179708951F93DC01BA
:100D8000FB019C91923008F447C08081823008F4C6
:100D900043C0943051F411961C91843099F58181AF
:100DA000682F70E0611B71093FC0843021F09230E0
:100DB00031F48230B9F18181882389F12DC01196F7
:100DC0001C9111978230F1F081811817D9F4129695
:100DD0002D913C911397828193818217930794F010
:100DE00028173907BCF014968D919D910D90BC91F8
:100DF000A02D2481358146815781281739074A075C
:100E00005B0718F4112341F00AC082179307A40767
:100E1000B50740F4112319F061E070E005C06FEFF1
:100E20007FEF02C060E070E0CB011F9108950F9347
:100E30001F93DF93CF93CDB7DEB7C257D0400FB625
:100E4000F894DEBF0FBECDBF0E94D9280E940131A9
:100E50000E94D4260E94862785E00E9496270E9441
:100E6000292E0E94042A0E94152781E00E941B302F
:100E70008CE00E941B3080E690E0282F80E090E01C
:100E8000622F0E94BC3921E93DE060E070E08AE712
:100E900094E4A9010E94063581E00E941B3086E699
:100EA00090E00E94743086E790E090934503809331
:100EB000440380914403909145030E94052781E0FB
:100EC000809322030E94F03877C10E94373220E6D7
:100ED00030E0B9010E94893E009709F0D2C081E05C
:100EE0000E941B308AE890E00E94743088E990E00C
:100EF0000E94052781E08093230387EA90E00E9407
:100F00000527B9C00E94FC2661E00E94DE0DFE01AB
:100F1000E359FF4F80E090E0AAEFB3E48083918330
:100F2000A283B3838E0107591F4FFE01E359FF4F80
:100F3000608171818281938120E030E04AE753E44F
:100F40000E941F02DC01CB01F80180839183A28300
:100F5000B383FE01E759FF4F6081718182819381E4
:100F600020E030E040E85FE30E942504882344F459
:100F7000FE01E959FF4F81E090E09183808364C0D6
:100F8000FE01E759FF4F608171818281938120E0EA
:100F90003FEF4FE757E40E94C50318160CF043C01B
:100FA000FE01E359FF4F608171818281938120E0CE
:100FB00030E040E251E40E941F02DC01CB018E01CF
:100FC00009591F4FBC01CD010E944900DC01CB0132
:100FD000F801918380831FC0FE01EB59FF4F89E127
:100FE00090E091838083FE01EB59FF4F80819181D6
:100FF0000197F1F7FE01EB59FF4F91838083DE01EA
:10100000A959BF4FFE01E959FF4F80819181019796
:1010100011969C938E93FE01E959FF4F8081918137
:101020000097D1F628C08E0109591F4FFE01E759DC
:10103000FF4F60817181828193810E944900DC01B0
:10104000CB01F80191838083DE01AD59BF4FFE01D2
:10105000E959FF4F8081918111969C938E93FE01F7
:10106000ED59FF4F808191810197F1F7FE01ED5914
:10107000FF4F9183808380912303882309F042CF1F
:101080009BC00E9437329C0188EB90E0B9010E941E
:10109000893E009791F581E00E941B308EEB90E035
:1010A0000E9474308EEB90E00E94052781E08093CF
:1010B000240380912503813059F405C00E94FC2649
:1010C00060E00E94DE0D809124038823B9F774C08C
:1010D00081E060E00E9490308CEC90E00E947430DF
:1010E00081E060E00E94903086ED90E00E947430D4
:1010F00086ED90E00E9405275FC00E94373224EE03
:1011000030E0B9010E94893E009771F410922203E9
:1011100081E00E941B3089EE90E00E94743089EEDD
:1011200090E00E94052748C080E090E00E94F239DC
:10113000882F90E026E233E0B9010E94893E0097B3
:10114000D9F10E94373224EE30E0B9010E94893E85
:10115000009791F10E94373228EB30E0B9010E94EC
:10116000893E009749F181E00E941B308FEF90E0AB
:101170000E9474308FEF90E00E940527FE01EE5828
:10118000FF4F108213C0FE01EE58FF4F8081882F61
:1011900090E0FC01EA5DFC4F1082DE01AE58BF4FCB
:1011A000FE01EE58FF4F80818F5F8C93FE01EE5859
:1011B000FF4F8081863038F380912203882309F025
:1011C00084CE0E94572A8335B9F7FE01EF58FF4FAE
:1011D00081E0808381E00E941B308EE091E00E94DC
:1011E00074300E94572A0E94DD267BC40E94572A31
:1011F000803309F0CBC0FE01E15AFF4F80E090E060
:10120000A6E9B3E480839183A283B3838E01055A58
:101210001F4FFE01E15AFF4F6081718182819381EE
:1012200020E030E04AE753E40E941F02DC01CB01DA
:10123000F80180839183A283B383FE01E55AFF4FB7
:10124000608171818281938120E030E040E85FE33A
:101250000E942504882344F4FE01E75AFF4F81E0F1
:1012600090E09183808364C0FE01E55AFF4F608166
:1012700071818281938120E03FEF4FE757E40E9424
:10128000C50318160CF043C0FE01E15AFF4F608100
:1012900071818281938120E030E040E251E40E943C
:1012A0001F02DC01CB018E01075A1F4FBC01CD018B
:1012B0000E944900DC01CB01F801918380831FC0AB
:1012C000FE01E95AFF4F89E190E091838083FE019E
:1012D000E95AFF4F808191810197F1F7FE01E95AA8
:1012E000FF4F91838083DE01A75ABF4FFE01E75A6B
:1012F000FF4F80819181019711969C938E93FE01FF
:10130000E75AFF4F808191810097D1F627C08E0167
:10131000075A1F4FFE01E55AFF4F6081718182819C
:1013200093810E944900DC01CB01F8019183808305
:10133000DE01AB5ABF4FFE01E75AFF4F808191811A
:101340008D939C93FE01EB5AFF4F80819181019711
:10135000F1F7FE01EB5AFF4F9183808380E00E94FA
:10136000263181E060E00E9490308CEC90E00E9499
:10137000743081E060E00E94903088E191E00E944A
:1013800074300E94572A0E94DD26ABC30E94572A60
:10139000813309F0CBC0FE01EF5AFF4F80E090E0AF
:1013A000A6E9B3E480839183A283B3838E01035BB8
:1013B0001F4FFE01EF5AFF4F60817181828193813F
:1013C00020E030E04AE753E40E941F02DC01CB0139
:1013D000F80180839183A283B383FE01E35BFF4F17
:1013E000608171818281938120E030E040E85FE399
:1013F0000E942504882344F4FE01E55BFF4F81E051
:1014000090E09183808364C0FE01E35BFF4F6081C5
:1014100071818281938120E03FEF4FE757E40E9482
:10142000C50318160CF043C0FE01EF5AFF4F608150
:1014300071818281938120E030E040E251E40E949A
:101440001F02DC01CB018E01055B1F4FBC01CD01EA
:101450000E944900DC01CB01F801918380831FC009
:10146000FE01E75BFF4F89E190E091838083FE01FD
:10147000E75BFF4F808191810197F1F7FE01E75B08
:10148000FF4F91838083DE01A55BBF4FFE01E55BCB
:10149000FF4F80819181019711969C938E93FE015D
:1014A000E55BFF4F808191810097D1F627C08E01C7
:1014B000055B1F4FFE01E35BFF4F608171818281FD
:1014C00093810E944900DC01CB01F8019183808364
:1014D000DE01A95BBF4FFE01E55BFF4F808191817B
:1014E0008D939C93FE01E95BFF4F80819181019771
:1014F000F1F7FE01E95BFF4F9183808380E00E945A
:10150000573181E060E00E9490308CEC90E00E94C6
:10151000743081E060E00E94903080E291E00E94AF
:1015200074300E94572A0E94DD26DBC20E94572A8F
:10153000823309F09DC0FE01ED5BFF4F80E090E03B
:10154000A6E9B3E480839183A283B3838E01015C17
:101550001F4FFE01ED5BFF4F60817181828193819E
:1015600020E030E04AE753E40E941F02DC01CB0197
:10157000F80180839183A283B383FE01FF9660818B
:1015800071818281938120E030E040E85FE30E9436
:10159000250488232CF481E090E09EAF8DAF46C0F7
:1015A000FE01FF96608171818281938120E03FEF8F
:1015B0004FE757E40E94C503181664F5FE01ED5B82
:1015C000FF4F608171818281938120E030E040E2B1
:1015D00051E40E941F02DC01CB01BC01CD010E943D
:1015E0004900DC01CB019EAF8DAF0FC089E190E0D7
:1015F0009CAF8BAF8BAD9CAD0197F1F79CAF8BAFE0
:101600008DAD9EAD01979EAF8DAF8DAD9EAD009718
:1016100069F716C0FE01FF96608171818281938116
:101620000E944900DC01CB019EAF8DAF8DAD9EAD18
:101630009AAF89AF89AD9AAD0197F1F79AAF89AFAB
:1016400081E00E94263181E060E00E9490308CECC5
:1016500090E00E94743081E060E00E94903089E266
:1016600091E00E9474300E94572A0E94DD2639C200
:101670000E94572A833309F08AC080E090E0A6E9EF
:10168000B3E48DAB9EABAFABB8AF6DA97EA98FA90C
:1016900098AD20E030E04AE753E40E941F02DC01ED
:1016A000CB0189AB9AABABABBCAB69A97AA98BA9CF
:1016B0009CA920E030E040E85FE30E9425048823F5
:1016C0002CF481E090E098AB8FA73FC069A97AA97C
:1016D0008BA99CA920E03FEF4FE757E40E94C50388
:1016E00018164CF56DA97EA98FA998AD20E030E0C1
:1016F00040E251E40E941F02DC01CB01BC01CD019C
:101700000E944900DC01CB0198AB8FA70FC089E193
:1017100090E09EA78DA78DA59EA50197F1F79EA7A6
:101720008DA78FA598A9019798AB8FA78FA598A98A
:10173000009769F714C069A97AA98BA99CA90E948E
:101740004900DC01CB0198AB8FA78FA598A99CA776
:101750008BA78BA59CA50197F1F79CA78BA781E090
:101760000E94573181E060E00E9490308CEC90E064
:101770000E94743081E060E00E94903081E391E04B
:101780000E9474300E94572A0E94DD26AAC10E943E
:10179000572A843309F08AC080E090E0A6E9B3E4D8
:1017A0008FA398A7A9A7BAA76FA178A589A59AA57D
:1017B00020E030E04AE753E40E941F02DC01CB0145
:1017C0008BA39CA3ADA3BEA36BA17CA18DA19EA165
:1017D00020E030E040E85FE30E94250488232CF4F9
:1017E00081E090E09AA389A33FC06BA17CA18DA169
:1017F0009EA120E03FEF4FE757E40E94C503181673
:101800004CF56FA178A589A59AA520E030E040E2CB
:1018100051E40E941F02DC01CB01BC01CD010E94FA
:101820004900DC01CB019AA389A30FC089E190E0B4
:1018300098A38F8F8F8D98A10197F1F798A38F8F21
:1018400089A19AA101979AA389A389A19AA1009736
:1018500069F714C06BA17CA18DA19EA10E944900D3
:10186000DC01CB019AA389A389A19AA19E8F8D8FB8
:101870008D8D9E8D0197F1F79E8F8D8F82E00E9456
:10188000263181E060E00E9490308CEC90E00E9474
:10189000743081E060E00E9490308AE391E00E9421
:1018A00074300E94572A0E94DD261BC10E94572ACD
:1018B000853309F08AC080E090E0A6E9B3E4898F1F
:1018C0009A8FAB8FBC8F698D7A8D8B8D9C8D20E02C
:1018D00030E04AE753E40E941F02DC01CB018D8B0C
:1018E0009E8BAF8BB88F6D897E898F89988D20E014
:1018F00030E040E85FE30E94250488232CF481E077
:1019000090E09C8B8B8B3FC06D897E898F89988DF1
:1019100020E03FEF4FE757E40E94C50318164CF54F
:10192000698D7A8D8B8D9C8D20E030E040E251E412
:101930000E941F02DC01CB01BC01CD010E944900C5
:10194000DC01CB019C8B8B8B0FC089E190E09A8BE3
:10195000898B89899A890197F1F79A8B898B8B8971
:101960009C8901979C8B8B8B8B899C89009769F74D
:1019700014C06D897E898F89988D0E944900DC0191
:10198000CB019C8B8B8B8B899C89988B8F878F85C8
:1019900098890197F1F7988B8F8782E00E945731E1
:1019A00081E060E00E9490308CEC90E00E94743006
:1019B00081E060E00E94903082E491E00E94743007
:1019C0000E94572A0E94DD268CC00E94572A80352B
:1019D00009F087C00E94572A0E94DD2604C00E9499
:1019E000910D1092D1020E94572A8035C1F381E0F7
:1019F0000E941B308BE491E00E94743080E090E004
:101A0000A6E9B3E48B879C87AD87BE876B857C8511
:101A10008D859E8520E030E04AE753E40E941F0256
:101A2000DC01CB018F839887A987BA876F8178857E
:101A300089859A8520E030E040E85FE30E94250434
:101A400088232CF481E090E09E838D833FC06F81DA
:101A5000788589859A8520E03FEF4FE757E40E941B
:101A6000C50318164CF56B857C858D859E8520E019
:101A700030E040E251E40E941F02DC01CB01BC01D6
:101A8000CD010E944900DC01CB019E838D830FC0F4
:101A900089E190E09C838B838B819C810197F1F796
:101AA0009C838B838D819E8101979E838D838D8105
:101AB0009E81009769F7F0C96F81788589859A853D
:101AC0000E944900DC01CB019E838D838D819E8124
:101AD0009A83898389819A810197F1F79A8389830F
:101AE000DBC9FE01EF58FF4F8081882309F07ECBD0
:101AF00063CBDF93CF93CDB7DEB780E00E9435276D
:101B000083E60E9479270E942C27CF91DF910895C8
:101B1000DF93CF93CDB7DEB70E946627CF91DF91D9
:101B20000895DF93CF93CDB7DEB70E94E22880936C
:101B3000350380913503282F30E000D000D000D04D
:101B4000EDB7FEB7319680E493E0918380838AE518
:101B500091E093838283358324830E94923E8DB7E4
:101B60009EB706960FB6F8949EBF0FBE8DBF80E05D
:101B70006EE00E94903080E493E00E947430809187
:101B80003503282F30E08091D002882F90E04596D1
:101B90002817390714F00E94790D80913503282FFA
:101BA00030E08091D002882F90E0459628173907C1
:101BB00014F40E94880DCF91DF910895DF93CF93A5
:101BC00000D000D000D0CDB7DEB789836A838A8188
:101BD000882309F0C3C08981282F30E03E832D83FC
:101BE0008D819E818333910509F465C02D813E81ED
:101BF000243331058CF48D819E818133910599F1D7
:101C00002D813E81223331050CF041C08D819E81B2
:101C100080339105A1F0E4C12D813E81253331054A
:101C200009F471C08D819E81853391050CF457C0F4
:101C30002D813E812534310509F479C0D1C180E080
:101C40000E94263181E060E00E9490308CEC90E0B0
:101C50000E94743081E060E00E94903088E191E061
:101C60000E947430BDC180E00E94573181E060E085
:101C70000E9490308CEC90E00E94743081E060E033
:101C80000E94903080E291E00E947430A9C181E00E
:101C90000E94263181E060E00E9490308CEC90E060
:101CA0000E94743081E060E00E94903089E291E00F
:101CB0000E94743095C181E00E94573181E060E05C
:101CC0000E9490308CEC90E00E94743081E060E0E3
:101CD0000E94903081E391E00E94743081C182E0E3
:101CE0000E94263181E060E00E9490308CEC90E010
:101CF0000E94743081E060E00E9490308AE391E0BD
:101D00000E9474306DC182E00E94573181E060E032
:101D10000E9490308CEC90E00E94743081E060E092
:101D20000E94903082E491E00E94743059C1109278
:101D3000240381E060E00E9490308CEC90E00E94EF
:101D4000743081E060E00E9490308DE591E00E9467
:101D5000743088E691E00E94052742C18A81813073
:101D600009F03EC18981282F30E03C832B838B8191
:101D70009C818533910509F4B2C02B813C812633C7
:101D8000310524F58B819C818233910509F46BC068
:101D90002B813C812333310564F48B819C8180331A
:101DA0009105C9F12B813C812133310509F447C0EC
:101DB00017C18B819C818333910509F468C02B8105
:101DC0003C812433310509F476C00AC18B819C81A2
:101DD0008734910509F4BFC02B813C81283431053B
:101DE0006CF48B819C818434910509F48CC02B8127
:101DF0003C812534310509F4DDC0F2C08B819C8122
:101E00008436910509F493C02B813C812736310536
:101E100009F4B9C0E5C080E00E94263181E060E0AD
:101E20000E9490308CEC90E00E94743081E060E081
:101E30000E94903088E191E00E947430D1C080E02F
:101E40000E94573181E060E00E9490308CEC90E07D
:101E50000E94743081E060E00E94903080E291E066
:101E60000E947430BDC081E00E94263181E060E0B4
:101E70000E9490308CEC90E00E94743081E060E031
:101E80000E94903089E291E00E947430A9C081E004
:101E90000E94573181E060E00E9490308CEC90E02D
:101EA0000E94743081E060E00E94903081E391E014
:101EB0000E94743095C082E00E94263181E060E08B
:101EC0000E9490308CEC90E00E94743081E060E0E1
:101ED0000E9490308AE391E00E94743081C082E0D9
:101EE0000E94573181E060E00E9490308CEC90E0DD
:101EF0000E94743081E060E00E94903082E491E0C2
:101F00000E9474306DC08AE00E94962781E060E0F4
:101F10000E9490308CEC90E00E94743081E060E090
:101F20000E94903087E891E00E94743059C085E0AB
:101F30000E94962781E060E00E9490308CEC90E057
:101F40000E94743081E060E00E94903081E991E06D
:101F50000E94743045C081E08093250381E060E0F9
:101F60000E9490308CEC90E00E94743081E060E040
:101F70000E9490308CE991E00E9474308CE991E0ED
:101F80000E9405272DC01092250381E060E00E9489
:101F900090308CEC90E00E94743081E060E00E9410
:101FA00090308BEA91E00E9474308BEA91E00E94BD
:101FB000052716C081E060E00E9490308CEC90E034
:101FC0000E94743081E060E00E9490308EEB91E0DE
:101FD0000E94743088E691E00E9405271092230346
:101FE00026960FB6F894DEBF0FBECDBFCF91DF911E
:101FF0000895DF93CF93CDB7DEB70E948D37CF9191
:10200000DF910895DF93CF930F92CDB7DEB7898329
:1020100089810E94AE370F90CF91DF910895DF93B1
:10202000CF93CDB7DEB70E94FC3681E063E040E09D
:102030000E941D3ACF91DF910895DF93CF93CDB7E2
:10204000DEB7A1970FB6F894DEBF0FBECDBF87E312
:1020500090E099A388A3E7E3F0E09081E7E3F0E064
:102060008081882F90E0887F009729F0E1E0F0E000
:10207000FF8FEE8F02C01F8E1E8E8E8DE8A1F9A1FC
:10208000808380E090E0A0E8BFE3898F9A8FAB8FD8
:10209000BC8F698D7A8D8B8D9C8D20E030E04AE776
:1020A00053E40E941F02DC01CB018D8B9E8BAF8B12
:1020B000B88F6D897E898F89988D20E030E040E867
:1020C0005FE30E94250488232CF481E090E09C8B40
:1020D0008B8B3FC06D897E898F89988D20E03FEF83
:1020E0004FE757E40E94C50318164CF5698D7A8DA9
:1020F0008B8D9C8D20E030E040E251E40E941F0275
:10210000DC01CB01BC01CD010E944900DC01CB0107
:102110009C8B8B8B0FC089E190E09A8B898B89898E
:102120009A890197F1F79A8B898B8B899C89019702
:102130009C8B8B8B8B899C89009769F714C06D8968
:102140007E898F89988D0E944900DC01CB019C8B90
:102150008B8B8B899C89988B8F878F85988901972A
:10216000F1F7988B8F8781E065E041E00E941D3A8E
:1021700080E090E0A0E8BFE38B879C87AD87BE87B7
:102180006B857C858D859E8520E030E04AE753E4B1
:102190000E941F02DC01CB018F839887A987BA8731
:1021A0006F81788589859A8520E030E040E85FE39B
:1021B0000E94250488232CF481E090E09E838D8387
:1021C0003FC06F81788589859A8520E03FEF4FE792
:1021D00057E40E94C50318164CF56B857C858D85E8
:1021E0009E8520E030E040E251E40E941F02DC01C5
:1021F000CB01BC01CD010E944900DC01CB019E83D3
:102200008D830FC089E190E09C838B838B819C81BF
:102210000197F1F79C838B838D819E8101979E832B
:102220008D838D819E81009769F714C06F817885B9
:1022300089859A850E944900DC01CB019E838D83AC
:102240008D819E819A83898389819A810197F1F793
:102250009A83898381E067E041E00E941D3AA1965C
:102260000FB6F894DEBF0FBECDBFCF91DF910895BA
:10227000DF93CF93CDB7DEB762970FB6F894DEBF8A
:102280000FBECDBF9A8B898B188A1F8677C080E0DE
:1022900090E0A0E8BFE38B879C87AD87BE876B8506
:1022A0007C858D859E8520E030E04AE753E40E94DE
:1022B0001F02DC01CB018F839887A987BA876F81C2
:1022C000788589859A8520E030E040E85FE30E94C8
:1022D000250488232CF481E090E09E838D833FC009
:1022E0006F81788589859A8520E03FEF4FE757E435
:1022F0000E94C50318164CF56B857C858D859E85DF
:1023000020E030E040E251E40E941F02DC01CB01FA
:10231000BC01CD010E944900DC01CB019E838D836D
:102320000FC089E190E09C838B838B819C81019716
:10233000F1F79C838B838D819E8101979E838D8392
:102340008D819E81009769F714C06F81788589859A
:102350009A850E944900DC01CB019E838D838D818B
:102360009E819A83898389819A810197F1F79A8363
:1023700089838F8598890196988B8F872F853889D7
:1023800089899A89281739070CF481CF62960FB68C
:10239000F894DEBF0FBECDBFCF91DF910895DF93DC
:1023A000CF93CDB7DEB7AFE4B0E0EFE4F0E08081EB
:1023B0008E7F8C93AFE4B0E0EFE4F0E080818D7F1E
:1023C0008C93AFE4B0E0EFE4F0E0808188608C9320
:1023D000AEE4B0E0EEE4F0E080818F7E8C93EAE43E
:1023E000F0E089EF90E091838083AEE4B0E0EEE42A
:1023F000F0E0808181608C93AEE4B0E0EEE4F0E048
:1024000080818D7F8C93AEE4B0E0EEE4F0E08081DB
:1024100084608C93CF91DF910895EF92FF920F9398
:102420001F93DF93CF93CDB7DEB7A0970FB6F89485
:10243000DEBF0FBECDBF80E090E0A0E0B0E08D8FAA
:102440009E8FAF8FB8A3198E1A8E1B8E1C8E0E9482
:10245000E238AFE4B0E0EFE4F0E080818E7F8C936F
:10246000AFE4B0E0EFE4F0E080818D7F8C93AEE4E8
:10247000B0E0EEE4F0E08081877F8C93AEE4B0E0E2
:10248000EEE4F0E080818F7E8C93AEE4B0E0EEE489
:10249000F0E0808180648C93AEE4B0E0EEE4F0E0A4
:1024A000808182608C93A9E5B0E0E9E5F0E080816D
:1024B00084608C9380E060E041E00E941D3A80E0FF
:1024C00060E041E00E941D3A80E090E0A0E2B1E4CB
:1024D0008D8B9E8BAF8BB88F6D897E898F89988D00
:1024E0002BEA3AEA4AEA5EE30E941F02DC01CB01D2
:1024F000898B9A8BAB8BBC8B69897A898B899C89F8
:1025000020E030E040E85FE30E94250488231CF4CB
:1025100081E0888B91C069897A898B899C8920E0C8
:1025200030E04FE753E40E94C50318160CF07BC05F
:102530006D897E898F89988D20E030E04AE754E4E8
:102540000E941903DC01CB018C879D87AE87BF8772
:102550006C857D858E859F8520E030E04AE753E4D9
:102560000E941F02DC01CB0188879987AA87BB875D
:10257000688579858A859B8520E030E040E85FE3C7
:102580000E94250488232CF481E090E09F838E83B1
:102590003FC0688579858A859B8520E03FEF4FE7BE
:1025A00057E40E94C50318164CF56C857D858E8511
:1025B0009F8520E030E040E251E40E941F02DC01F0
:1025C000CB01BC01CD010E944900DC01CB019F83FE
:1025D0008E830FC089E190E09D838C838C819D81E7
:1025E0000197F1F79D838C838E819F8101979F8353
:1025F0008E838E819F81009769F724C068857985D5
:102600008A859B850E944900DC01CB019F838E83D4
:102610008E819F819B838A838A819B810197F1F7B9
:102620009B838A830FC069897A898B899C890E94E0
:102630004900DC01CB01888B8889898389818A954F
:10264000F1F7898380E060E040E00E94003BE8E52C
:10265000F0E08081829586958770882F90E0817068
:1026600090700097A1F3ECE4F0E0118210821092D8
:10267000470310924603A8E5B0E0E8E5F0E080816A
:1026800080628C93AEE4B0E0EEE4F0E080818F7B7A
:102690008C93E8E5F0E08081829586958770882F9D
:1026A00090E0817090700097A1F3E6E4F0E0808103
:1026B00091817C0100E010E08091460390914703F6
:1026C000CC01A0E0B0E02FEF3FEF40E050E0BC01D4
:1026D000CD010E94DE3DDC01CB018E0D9F1DA01FB0
:1026E000B11F898F9A8FAB8FBC8F698D7A8D8B8D3F
:1026F0009C8D0E94A904DC01CB01BC01CD0128E224
:102700003EE74CE05CE30E941F02DC01CB018D8FB1
:102710009E8FAF8FB8A38D8D9E8DAF8DB8A1BC015C
:10272000CD01A0960FB6F894DEBF0FBECDBFCF91FE
:10273000DF911F910F91FF90EF9008951F920F92DC
:102740000FB60F9211248F939F93DF93CF93CDB742
:10275000DEB780914603909147030196909347031B
:1027600080934603CF91DF919F918F910F900FBE81
:102770000F901F901895DF93CF9300D000D0CDB766
:10278000DEB789836A838981809348038A81809335
:1027900049038A81282F30E03C832B838B819C81E5
:1027A00081309105F9F02B813C812230310529F0EF
:1027B0008B819C81009759F13EC0898161E041E0A5
:1027C0000E941D3A898163E041E00E941D3A89819F
:1027D00064E041E00E941D3A898165E041E00E9489
:1027E0001D3A29C0898164E041E00E941D3A898137
:1027F00065E041E00E941D3A898166E041E00E9467
:102800001D3A898167E041E00E941D3A14C0898128
:1028100060E041E00E941D3A898161E041E00E9450
:102820001D3A898162E041E00E941D3A898163E09E
:1028300041E00E941D3A0F900F900F900F90CF91A2
:10284000DF9108950F931F93DF93CF93CDB7DEB73A
:10285000CB54D1400FB6F894DEBF0FBECDBFFE0102
:10286000ED5BFE4F8083FE01EC5BFE4F6083FE015B
:10287000EB5BFE4F4083FE01EC5BFE4F8081282F17
:1028800030E0C65BDE4F39832883CA54D140C65B33
:10289000DE4F88819981CA54D140009769F0C65BA8
:1028A000DE4FE881F981CA54D140E130F10511F4DD
:1028B0000C94D01D0C94C826FE01EB5BFE4F80816A
:1028C000282F30E0C85BDE4F39832883C854D140BD
:1028D000C85BDE4F88819981C854D1408130910511
:1028E00009F46DC3C85BDE4FE881F981C854D1405B
:1028F000E230F10561F0C85BDE4F28813981C854B0
:10290000D1402115310509F4B2C60C94C826809136
:10291000480361E041E00E94003B8091480363E08E
:1029200040E00E94003B8091480364E040E00E9448
:10293000003B8091480365E040E00E94003BFE01BF
:10294000ED5BFE4F8081882F90E0A0E0B0E0BC01FD
:10295000CD010E94A904DC01CB01FE01E15CFE4F28
:1029600080839183A283B3838E01055C1E4FFE0199
:10297000E15CFE4F608171818281938120E030E0D3
:102980004AE753E40E941F02DC01CB01F801808377
:102990009183A283B383FE01E55CFE4F6081718168
:1029A0008281938120E030E040E85FE30E942504CB
:1029B000882344F4FE01E75CFE4F81E090E09183C0
:1029C000808364C0FE01E55CFE4F6081718182817D
:1029D000938120E03FEF4FE757E40E94C5031816AC
:1029E0000CF043C0FE01E15CFE4F60817181828189
:1029F000938120E030E040E251E40E941F02DC01BC
:102A0000CB018E01075C1E4FBC01CD010E94490025
:102A1000DC01CB01F801918380831FC0FE01E95CDA
:102A2000FE4F89E190E091838083FE01E95CFE4FD7
:102A3000808191810197F1F7FE01E95CFE4F91835E
:102A40008083DE01A75CBE4FFE01E75CFE4F808104
:102A50009181019711969C938E93FE01E75CFE4F46
:102A6000808191810097D1F627C08E01075C1E4FAF
:102A7000FE01E55CFE4F60817181828193810E943D
:102A80004900DC01CB01F80191838083DE01AB5C5E
:102A9000BE4FFE01E75CFE4F808191818D939C9338
:102AA000FE01EB5CFE4F808191810197F1F7FE0101
:102AB000EB5CFE4F918380838091480361E040E0AE
:102AC0000E94003B8091480363E041E00E94003B8C
:102AD0008091480364E040E00E94003B80914803FD
:102AE00065E040E00E94003BFE01ED5BFE4F80810F
:102AF000882F90E0A0E0B0E0BC01CD010E94A904C5
:102B0000DC01CB01FE01EF5CFE4F80839183A28349
:102B1000B3838E01035D1E4FFE01EF5CFE4F6081AB
:102B200071818281938120E030E04AE753E40E9482
:102B30001F02DC01CB01F80180839183A283B38360
:102B4000FE01E35DFE4F608171818281938120E00F
:102B500030E040E85FE30E942504882344F4FE014E
:102B6000E55DFE4F81E090E09183808364C0FE01CB
:102B7000E35DFE4F608171818281938120E03FEFB0
:102B80004FE757E40E94C50318160CF043C0FE013E
:102B9000EF5CFE4F608171818281938120E030E0A3
:102BA00040E251E40E941F02DC01CB018E01055D71
:102BB0001E4FBC01CD010E944900DC01CB01F80190
:102BC000918380831FC0FE01E75DFE4F89E190E0A5
:102BD00091838083FE01E75DFE4F808191810197A3
:102BE000F1F7FE01E75DFE4F91838083DE01A55D75
:102BF000BE4FFE01E55DFE4F8081918101971196E8
:102C00009C938E93FE01E55DFE4F8081918100973C
:102C1000D1F627C08E01055D1E4FFE01E35DFE4F1C
:102C200060817181828193810E944900DC01CB0126
:102C3000F80191838083DE01A95DBE4FFE01E55D51
:102C4000FE4F808191818D939C93FE01E95DFE4F43
:102C5000808191810197F1F7FE01E95DFE4F91833B
:102C600080838091480361E040E00E94003B8091B6
:102C7000480363E040E00E94003B8091480364E029
:102C800041E00E94003B8091480365E040E00E94E3
:102C9000003BFE01ED5BFE4F8081882F90E0A0E0BD
:102CA000B0E0BC01CD010E94A904DC01CB01FE0112
:102CB000ED5DFE4F80839183A283B3838E01015E1D
:102CC0001E4FFE01ED5DFE4F608171818281938117
:102CD00020E030E04AE753E40E941F02DC01CB0110
:102CE000F80180839183A283B383FE01E15EFE4FEE
:102CF000608171818281938120E030E040E85FE370
:102D00000E942504882344F4FE01E35EFE4F81E027
:102D100090E09183808364C0FE01E15EFE4F60819C
:102D200071818281938120E03FEF4FE757E40E9459
:102D3000C50318160CF043C0FE01ED5DFE4F608127
:102D400071818281938120E030E040E251E40E9471
:102D50001F02DC01CB018E01035E1E4FBC01CD01C1
:102D60000E944900DC01CB01F801918380831FC0E0
:102D7000FE01E55EFE4F89E190E091838083FE01D4
:102D8000E55EFE4F808191810197F1F7FE01E55EDE
:102D9000FE4F91838083DE01A35EBE4FFE01E35EA2
:102DA000FE4F80819181019711969C938E93FE0135
:102DB000E35EFE4F808191810097D1F627C08E019E
:102DC000035E1E4FFE01E15EFE4F608171818281D4
:102DD00093810E944900DC01CB01F801918380833B
:102DE000DE01A75EBE4FFE01E35EFE4F8081918152
:102DF0008D939C93FE01E75EFE4F80819181019748
:102E0000F1F7FE01E75EFE4F9183808380914803D6
:102E100061E040E00E94003B8091480363E040E0B5
:102E20000E94003B8091480364E040E00E94003B28
:102E30008091480365E041E00E94003BFE01ED5BAC
:102E4000FE4F8081882F90E0A0E0B0E0BC01CD0172
:102E50000E94A904DC01CB01FE01EB5EFE4F8083E2
:102E60009183A283B3838E010F5E1E4FFE01EB5E42
:102E7000FE4F608171818281938120E030E04AE7DA
:102E800053E40E941F02DC01CB01F801808391838F
:102E9000A283B383FE01EF5EFE4F60817181828168
:102EA000938120E030E040E85FE30E94250488231E
:102EB00044F4FE01E15FFE4F81E090E09183808366
:102EC00065C0FE01EF5EFE4F60817181828193815A
:102ED00020E03FEF4FE757E40E94C50318160CF0BF
:102EE00044C0FE01EB5EFE4F60817181828193815F
:102EF00020E030E040E251E40E941F02DC01CB01FF
:102F00008E01015F1E4FBC01CD010E944900DC0112
:102F1000CB01F801918380831FC0FE01E35FFE4F68
:102F200089E190E091838083FE01E35FFE4F808121
:102F300091810197F1F7FE01E35FFE4F918380835A
:102F4000DE01A15FBE4FFE01E15FFE4F80819181F6
:102F5000019711969C938E93FE01E15FFE4F808155
:102F600091810097D1F60C94C8268E01015F1E4F07
:102F7000FE01EF5EFE4F60817181828193810E942C
:102F80004900DC01CB01F80191838083DE01A55F5C
:102F9000BE4FFE01E15FFE4F8081918111969C93AF
:102FA0008E93FE01E55FFE4F808191810197F1F7DD
:102FB000FE01E55FFE4F918380830C94C8268091CB
:102FC000480364E041E00E94003B8091480365E0D3
:102FD00040E00E94003B8091480366E040E00E9490
:102FE000003B8091480367E040E00E94003BFE0107
:102FF000ED5BFE4F8081882F90E0A0E0B0E0BC0147
:10300000CD010E94A904DC01CB01FE01E95FFE4F66
:1030100080839183A283B3838E010D5F1E4FFE01D7
:10302000E95FFE4F608171818281938120E030E011
:103030004AE753E40E941F02DC01CB01F8018083C0
:103040009183A283B383FE01ED5FFE4F60817181A6
:103050008281938120E030E040E85FE30E94250414
:10306000882344F4FE01EF5FFE4F81E090E09183FE
:10307000808364C0FE01ED5FFE4F608171818281BB
:10308000938120E03FEF4FE757E40E94C5031816F5
:103090000CF043C0FE01E95FFE4F608171818281C7
:1030A000938120E030E040E251E40E941F02DC0105
:1030B000CB018E010F5F1E4FBC01CD010E94490064
:1030C000DC01CB01F801918380831FC0FE01E15038
:1030D000FF4F89E190E091838083FE01E150FF4F33
:1030E000808191810197F1F7FE01E150FF4F9183BB
:1030F0008083DE01AF5FBE4FFE01EF5FFE4F808138
:103100009181019711969C938E93FE01EF5FFE4F84
:10311000808191810097D1F627C08E010F5F1E4FED
:10312000FE01ED5FFE4F60817181828193810E947B
:103130004900DC01CB01F80191838083DE01A350BB
:10314000BF4FFE01EF5FFE4F808191818D939C9375
:10315000FE01E350FF4F808191810197F1F7FE015D
:10316000E350FF4F918380838091480364E040E007
:103170000E94003B8091480365E041E00E94003BD3
:103180008091480366E040E00E94003B8091480344
:1031900067E040E00E94003BFE01ED5BFE4F808156
:1031A000882F90E0A0E0B0E0BC01CD010E94A9040E
:1031B000DC01CB01FE01E750FF4F80839183A283A6
:1031C000B3838E010B501F4FFE01E750FF4F60810C
:1031D00071818281938120E030E04AE753E40E94CC
:1031E0001F02DC01CB01F80180839183A283B383AA
:1031F000FE01EB50FF4F608171818281938120E05D
:1032000030E040E85FE30E942504882344F4FE0197
:10321000ED50FF4F81E090E09183808364C0FE0118
:10322000EB50FF4F608171818281938120E03FEFFD
:103230004FE757E40E94C50318160CF043C0FE0187
:10324000E750FF4F608171818281938120E030E0FF
:1032500040E251E40E941F02DC01CB018E010D50BF
:103260001F4FBC01CD010E944900DC01CB01F801D8
:10327000918380831FC0FE01EF50FF4F89E190E0F2
:1032800091838083FE01EF50FF4F808191810197F0
:10329000F1F7FE01EF50FF4F91838083DE01AD50C7
:1032A000BF4FFE01ED50FF4F808191810197119634
:1032B0009C938E93FE01ED50FF4F8081918100978A
:1032C000D1F627C08E010D501F4FFE01EB50FF4F6E
:1032D00060817181828193810E944900DC01CB0170
:1032E000F80191838083DE01A151BF4FFE01ED50B3
:1032F000FF4F808191818D939C93FE01E151FF4F9F
:10330000808191810197F1F7FE01E151FF4F918397
:1033100080838091480364E040E00E94003B8091FC
:10332000480365E040E00E94003B8091480366E06E
:1033300041E00E94003B8091480367E040E00E942A
:10334000003BFE01ED5BFE4F8081882F90E0A0E006
:10335000B0E0BC01CD010E94A904DC01CB01FE015B
:10336000E551FF4F80839183A283B3838E0109517E
:103370001F4FFE01E551FF4F608171818281938172
:1033800020E030E04AE753E40E941F02DC01CB0159
:10339000F80180839183A283B383FE01E951FF4F3B
:1033A000608171818281938120E030E040E85FE3B9
:1033B0000E942504882344F4FE01EB51FF4F81E075
:1033C00090E09183808364C0FE01E951FF4F6081EA
:1033D00071818281938120E03FEF4FE757E40E94A3
:1033E000C50318160CF043C0FE01E551FF4F608184
:1033F00071818281938120E030E040E251E40E94BB
:103400001F02DC01CB018E010B511F4FBC01CD010E
:103410000E944900DC01CB01F801918380831FC029
:10342000FE01ED51FF4F89E190E091838083FE0121
:10343000ED51FF4F808191810197F1F7FE01ED5130
:10344000FF4F91838083DE01AB51BF4FFE01EB51F3
:10345000FF4F80819181019711969C938E93FE017D
:10346000EB51FF4F808191810097D1F627C08E01EB
:103470000B511F4FFE01E951FF4F60817181828125
:1034800093810E944900DC01CB01F8019183808384
:10349000DE01AF51BF4FFE01EB51FF4F80819181A3
:1034A0008D939C93FE01EF51FF4F80819181019795
:1034B000F1F7FE01EF51FF4F918380838091480324
:1034C00064E040E00E94003B8091480365E040E0FA
:1034D0000E94003B8091480366E040E00E94003B70
:1034E0008091480367E041E00E94003BFE01ED5BF4
:1034F000FE4F8081882F90E0A0E0B0E0BC01CD01BC
:103500000E94A904DC01CB01FE01E352FF4F80833E
:103510009183A283B3838E0107521F4FFE01E352B2
:10352000FF4F608171818281938120E030E04AE722
:1035300053E40E941F02DC01CB01F80180839183D8
:10354000A283B383FE01E752FF4F608171818281C4
:10355000938120E030E040E85FE30E942504882367
:1035600044F4FE01E952FF4F81E090E091838083B3
:1035700065C0FE01E752FF4F6081718182819381B6
:1035800020E03FEF4FE757E40E94C50318160CF008
:1035900044C0FE01E352FF4F6081718182819381BB
:1035A00020E030E040E251E40E941F02DC01CB0148
:1035B0008E0109521F4FBC01CD010E944900DC0160
:1035C000CB01F801918380831FC0FE01EB52FF4FB6
:1035D00089E190E091838083FE01EB52FF4F80816F
:1035E00091810197F1F7FE01EB52FF4F91838083A8
:1035F000DE01A952BF4FFE01E952FF4F8081918148
:10360000019711969C938E93FE01E952FF4F8081A2
:1036100091810097D1F60C94C8268E0109521F4F54
:10362000FE01E752FF4F60817181828193810E9488
:103630004900DC01CB01F80191838083DE01AD52AA
:10364000BF4FFE01E952FF4F8081918111969C93FB
:103650008E93FE01ED52FF4F808191810197F1F72A
:10366000FE01ED52FF4F918380830C94C826809118
:10367000480360E041E00E94003B8091480361E024
:1036800040E00E94003B8091480362E040E00E94DD
:10369000003B8091480363E040E00E94003BFE0154
:1036A000ED5BFE4F8081882F90E0A0E0B0E0BC0190
:1036B000CD010E94A904DC01CB01FE01E153FF4FC3
:1036C00080839183A283B3838E0105531F4FFE0134
:1036D000E153FF4F608171818281938120E030E06E
:1036E0004AE753E40E941F02DC01CB01F80180830A
:1036F0009183A283B383FE01E553FF4F6081718103
:103700008281938120E030E040E85FE30E9425045D
:10371000882344F4FE01E753FF4F81E090E091835A
:10372000808364C0FE01E553FF4F60817181828117
:10373000938120E03FEF4FE757E40E94C50318163E
:103740000CF043C0FE01E153FF4F60817181828123
:10375000938120E030E040E251E40E941F02DC014E
:10376000CB018E0107531F4FBC01CD010E944900C0
:10377000DC01CB01F801918380831FC0FE01E95376
:10378000FF4F89E190E091838083FE01E953FF4F71
:10379000808191810197F1F7FE01E953FF4F9183F9
:1037A0008083DE01A753BF4FFE01E753FF4F8081A7
:1037B0009181019711969C938E93FE01E753FF4FE1
:1037C000808191810097D1F627C08E0107531F4F4A
:1037D000FE01E553FF4F60817181828193810E94D8
:1037E0004900DC01CB01F80191838083DE01AB53FA
:1037F000BF4FFE01E753FF4F808191818D939C93D2
:10380000FE01EB53FF4F808191810197F1F7FE019B
:10381000EB53FF4F918380838091480360E040E049
:103820000E94003B8091480361E041E00E94003B20
:103830008091480362E040E00E94003B8091480391
:1038400063E040E00E94003BFE01ED5BFE4F8081A3
:10385000882F90E0A0E0B0E0BC01CD010E94A90457
:10386000DC01CB01FE01EF53FF4F80839183A283E4
:10387000B3838E0103541F4FFE01EF53FF4F60814E
:1038800071818281938120E030E04AE753E40E9415
:103890001F02DC01CB01F80180839183A283B383F3
:1038A000FE01E354FF4F608171818281938120E0AA
:1038B00030E040E85FE30E942504882344F4FE01E1
:1038C000E554FF4F81E090E09183808364C0FE0166
:1038D000E354FF4F608171818281938120E03FEF4B
:1038E0004FE757E40E94C50318160CF043C0FE01D1
:1038F000EF53FF4F608171818281938120E030E03E
:1039000040E251E40E941F02DC01CB018E0105540C
:103910001F4FBC01CD010E944900DC01CB01F80121
:10392000918380831FC0FE01E754FF4F89E190E03F
:1039300091838083FE01E754FF4F8081918101973D
:10394000F1F7FE01E754FF4F91838083DE01A55418
:10395000BF4FFE01E554FF4F808191810197119681
:103960009C938E93FE01E554FF4F808191810097D7
:10397000D1F627C08E0105541F4FFE01E354FF4FBF
:1039800060817181828193810E944900DC01CB01B9
:10399000F80191838083DE01A954BF4FFE01E554F5
:1039A000FF4F808191818D939C93FE01E954FF4FDD
:1039B000808191810197F1F7FE01E954FF4F9183D6
:1039C00080838091480360E040E00E94003B80914A
:1039D000480361E040E00E94003B8091480362E0C0
:1039E00041E00E94003B8091480363E040E00E9478
:1039F000003BFE01ED5BFE4F8081882F90E0A0E050
:103A0000B0E0BC01CD010E94A904DC01CB01FE01A4
:103A1000ED54FF4F80839183A283B3838E010155C0
:103A20001F4FFE01ED54FF4F6081718182819381B0
:103A300020E030E04AE753E40E941F02DC01CB01A2
:103A4000F80180839183A283B383FE01E155FF4F88
:103A5000608171818281938120E030E040E85FE302
:103A60000E942504882344F4FE01E355FF4F81E0C2
:103A700090E09183808364C0FE01E155FF4F608137
:103A800071818281938120E03FEF4FE757E40E94EC
:103A9000C50318160CF043C0FE01ED54FF4F6081C2
:103AA00071818281938120E030E040E251E40E9404
:103AB0001F02DC01CB018E0103551F4FBC01CD015C
:103AC0000E944900DC01CB01F801918380831FC073
:103AD000FE01E555FF4F89E190E091838083FE016F
:103AE000E555FF4F808191810197F1F7FE01E55582
:103AF000FF4F91838083DE01A355BF4FFE01E35545
:103B0000FF4F80819181019711969C938E93FE01C6
:103B1000E355FF4F808191810097D1F627C08E0138
:103B200003551F4FFE01E155FF4F60817181828176
:103B300093810E944900DC01CB01F80191838083CD
:103B4000DE01A755BF4FFE01E355FF4F80819181F4
:103B50008D939C93FE01E755FF4F808191810197E2
:103B6000F1F7FE01E755FF4F918380838091480371
:103B700060E040E00E94003B8091480361E040E04B
:103B80000E94003B8091480362E040E00E94003BBD
:103B90008091480363E041E00E94003B0C94C826FA
:103BA000FE01EB5BFE4F8081282F30E0CA5BDE4FC9
:103BB00039832883C654D140CA5BDE4F88819981FE
:103BC000C654D1408130910509F46BC3CA5BDE4F06
:103BD000E881F981C654D140E230F10561F0CA5B59
:103BE000DE4F28813981C654D1402115310509F4B1
:103BF0007FC60C94C8268091480361E040E00E9493
:103C0000003B8091480363E040E00E94003B8091CC
:103C1000480364E040E00E94003B8091480365E077
:103C200041E00E94003BFE01ED5BFE4F8081882F4A
:103C300090E0A0E0B0E0BC01CD010E94A904DC014D
:103C4000CB01FE01EB55FF4F80839183A283B383A9
:103C50008E010F551F4FFE01EB55FF4F60817181A3
:103C60008281938120E030E04AE753E40E941F0202
:103C7000DC01CB01F80180839183A283B383FE0131
:103C8000EF55FF4F608171818281938120E030E0A8
:103C900040E85FE30E942504882344F4FE01E156D6
:103CA000FF4F81E090E09183808364C0FE01EF5577
:103CB000FF4F608171818281938120E03FEF4FE768
:103CC00057E40E94C50318160CF043C0FE01EB55E3
:103CD000FF4F608171818281938120E030E040E27A
:103CE00051E40E941F02DC01CB018E0101561F4FDF
:103CF000BC01CD010E944900DC01CB01F801918398
:103D000080831FC0FE01E356FF4F89E190E091835D
:103D10008083FE01E356FF4F808191810197F1F787
:103D2000FE01E356FF4F91838083DE01A156BF4F12
:103D3000FE01E156FF4F80819181019711969C937E
:103D40008E93FE01E156FF4F808191810097D1F65D
:103D500027C08E0101561F4FFE01EF55FF4F6081B6
:103D60007181828193810E944900DC01CB01F801BD
:103D700091838083DE01A556BF4FFE01E156FF4FC0
:103D8000808191818D939C93FE01E556FF4F808148
:103D900091810197F1F7FE01E556FF4F91838083F2
:103DA0008091480361E040E00E94003B809148031D
:103DB00063E040E00E94003B8091480364E041E002
:103DC0000E94003B8091480365E040E00E94003B78
:103DD000FE01ED5BFE4F8081882F90E0A0E0B0E017
:103DE000BC01CD010E94A904DC01CB01FE01E95612
:103DF000FF4F80839183A283B3838E010D561F4FA3
:103E0000FE01E956FF4F608171818281938120E03C
:103E100030E04AE753E40E941F02DC01CB01F801C5
:103E200080839183A283B383FE01ED56FF4F6081AF
:103E300071818281938120E030E040E85FE30E945D
:103E40002504882344F4FE01EF56FF4F81E090E003
:103E50009183808364C0FE01ED56FF4F60817181C4
:103E60008281938120E03FEF4FE757E40E94C50332
:103E700018160CF043C0FE01E956FF4F60817181B6
:103E80008281938120E030E040E251E40E941F02F1
:103E9000DC01CB018E010F561F4FBC01CD010E94EA
:103EA0004900DC01CB01F801918380831FC0FE0132
:103EB000E157FF4F89E190E091838083FE01E15754
:103EC000FF4F808191810197F1F7FE01E157FF4F8C
:103ED00091838083DE01AF56BF4FFE01EF56FF4F47
:103EE00080819181019711969C938E93FE01EF56EC
:103EF000FF4F808191810097D1F627C08E010F5628
:103F00001F4FFE01ED56FF4F6081718182819381C9
:103F10000E944900DC01CB01F80191838083DE011E
:103F2000A357BF4FFE01EF56FF4F808191818D93C4
:103F30009C93FE01E357FF4F808191810197F1F738
:103F4000FE01E357FF4F918380838091480361E036
:103F500040E00E94003B8091480363E041E00E9402
:103F6000003B8091480364E040E00E94003B809168
:103F7000480365E040E00E94003BFE01ED5BFE4F20
:103F80008081882F90E0A0E0B0E0BC01CD010E94CC
:103F9000A904DC01CB01FE01E757FF4F8083918329
:103FA000A283B3838E010B571F4FFE01E757FF4FCC
:103FB000608171818281938120E030E04AE753E49F
:103FC0000E941F02DC01CB01F80180839183A28350
:103FD000B383FE01EB57FF4F608171818281938132
:103FE00020E030E040E85FE30E942504882344F4A9
:103FF000FE01ED57FF4F81E090E09183808364C024
:10400000FE01EB57FF4F608171818281938120E037
:104010003FEF4FE757E40E94C50318160CF043C06A
:10402000FE01E757FF4F608171818281938120E01B
:1040300030E040E251E40E941F02DC01CB018E011E
:104040000D571F4FBC01CD010E944900DC01CB017F
:10405000F801918380831FC0FE01EF57FF4F89E174
:1040600090E091838083FE01EF57FF4F8081918123
:104070000197F1F7FE01EF57FF4F91838083DE0137
:10408000AD57BF4FFE01ED57FF4F808191810197E2
:1040900011969C938E93FE01ED57FF4F8081918185
:1040A0000097D1F627C08E010D571F4FFE01EB5729
:1040B000FF4F60817181828193810E944900DC0100
:1040C000CB01F80191838083DE01A158BF4FFE012F
:1040D000ED57FF4F808191818D939C93FE01E158B4
:1040E000FF4F808191810197F1F7FE01E158FF4F69
:1040F000918380838091480361E041E00E94003B0E
:104100008091480363E040E00E94003B80914803B7
:1041100064E040E00E94003B8091480365E040E09D
:104120000E94003BFE01ED5BFE4F8081882F90E0F6
:10413000A0E0B0E0BC01CD010E94A904DC01CB01EC
:10414000FE01E558FF4F80839183A283B3838E01E4
:1041500009581F4FFE01E558FF4F60817181828130
:10416000938120E030E04AE753E40E941F02DC0123
:10417000CB01F80180839183A283B383FE01E958C8
:10418000FF4F608171818281938120E030E040E8BF
:104190005FE30E942504882344F4FE01EB58FF4F9F
:1041A00081E090E09183808364C0FE01E958FF4F75
:1041B000608171818281938120E03FEF4FE757E476
:1041C0000E94C50318160CF043C0FE01E558FF4FCE
:1041D000608171818281938120E030E040E251E48E
:1041E0000E941F02DC01CB018E010B581F4FBC0146
:1041F000CD010E944900DC01CB01F801918380834D
:104200001FC0FE01ED58FF4F89E190E0918380834C
:10421000FE01ED58FF4F808191810197F1F7FE017A
:10422000ED58FF4F91838083DE01AB58BF4FFE01F5
:10423000EB58FF4F80819181019711969C938E934B
:10424000FE01EB58FF4F808191810097D1F6A0C508
:104250008E010B581F4FFE01E958FF4F608171819D
:10426000828193810E944900DC01CB01F801918396
:104270008083DE01AF58BF4FFE01EB58FF4F8081B6
:10428000918111969C938E93FE01EF58FF4F808190
:1042900091810197F1F7FE01EF58FF4F91838083E1
:1042A00077C58091480364E040E00E94003B809124
:1042B000480365E040E00E94003B8091480366E0CF
:1042C00040E00E94003B8091480367E041E00E948B
:1042D000003BFE01ED5BFE4F8081882F90E0A0E067
:1042E000B0E0BC01CD010E94A904DC01CB01FE01BC
:1042F000E359FF4F80839183A283B3838E010759D3
:104300001F4FFE01E359FF4F6081718182819381CC
:1043100020E030E04AE753E40E941F02DC01CB01B9
:10432000F80180839183A283B383FE01E759FF4F95
:10433000608171818281938120E030E040E85FE319
:104340000E942504882344F4FE01E959FF4F81E0CF
:1043500090E09183808364C0FE01E759FF4F608144
:1043600071818281938120E03FEF4FE757E40E9403
:10437000C50318160CF043C0FE01E359FF4F6081DE
:1043800071818281938120E030E040E251E40E941B
:104390001F02DC01CB018E0109591F4FBC01CD0169
:1043A0000E944900DC01CB01F801918380831FC08A
:1043B000FE01EB59FF4F89E190E091838083FE017C
:1043C000EB59FF4F808191810197F1F7FE01EB5985
:1043D000FF4F91838083DE01A959BF4FFE01E95948
:1043E000FF4F80819181019711969C938E93FE01DE
:1043F000E959FF4F808191810097D1F627C08E0146
:1044000009591F4FFE01E759FF4F60817181828179
:1044100093810E944900DC01CB01F80191838083E4
:10442000DE01AD59BF4FFE01E959FF4F80819181F7
:104430008D939C93FE01ED59FF4F808191810197EF
:10444000F1F7FE01ED59FF4F91838083809148037E
:1044500064E040E00E94003B8091480365E040E05A
:104460000E94003B8091480366E041E00E94003BCF
:104470008091480367E040E00E94003BFE01ED5B55
:10448000FE4F8081882F90E0A0E0B0E0BC01CD011C
:104490000E94A904DC01CB01FE01E15AFF4F808399
:1044A0009183A283B3838E01055A1F4FFE01E15A07
:1044B000FF4F608171818281938120E030E04AE783
:1044C00053E40E941F02DC01CB01F8018083918339
:1044D000A283B383FE01E55AFF4F6081718182811F
:1044E000938120E030E040E85FE30E9425048823C8
:1044F00044F4FE01E75AFF4F81E090E0918380830E
:1045000064C0FE01E55AFF4F608171818281938111
:1045100020E03FEF4FE757E40E94C50318160CF068
:1045200043C0FE01E15AFF4F608171818281938116
:1045300020E030E040E251E40E941F02DC01CB01A8
:104540008E01075A1F4FBC01CD010E944900DC01BA
:10455000CB01F801918380831FC0FE01E95AFF4F10
:1045600089E190E091838083FE01E95AFF4F8081C9
:1045700091810197F1F7FE01E95AFF4F9183808302
:10458000DE01A75ABF4FFE01E75AFF4F808191819C
:10459000019711969C938E93FE01E75AFF4F8081FD
:1045A00091810097D1F627C08E01075A1F4FFE0157
:1045B000E55AFF4F60817181828193810E94490099
:1045C000DC01CB01F80191838083DE01AB5ABF4F40
:1045D000FE01E75AFF4F808191818D939C93FE01EC
:1045E000EB5AFF4F808191810197F1F7FE01EB5A61
:1045F000FF4F918380838091480364E040E00E94F4
:10460000003B8091480365E041E00E94003B8091BF
:10461000480366E040E00E94003B8091480367E069
:1046200040E00E94003BFE01ED5BFE4F8081882F41
:1046300090E0A0E0B0E0BC01CD010E94A904DC0143
:10464000CB01FE01EF5AFF4F80839183A283B38396
:104650008E01035B1F4FFE01EF5AFF4F6081718196
:104660008281938120E030E04AE753E40E941F02F8
:10467000DC01CB01F80180839183A283B383FE0127
:10468000E35BFF4F608171818281938120E030E0A4
:1046900040E85FE30E942504882344F4FE01E55BC3
:1046A000FF4F81E090E09183808364C0FE01E35B73
:1046B000FF4F608171818281938120E03FEF4FE75E
:1046C00057E40E94C50318160CF043C0FE01EF5AD0
:1046D000FF4F608171818281938120E030E040E270
:1046E00051E40E941F02DC01CB018E01055B1F4FCC
:1046F000BC01CD010E944900DC01CB01F80191838E
:1047000080831FC0FE01E75BFF4F89E190E091834A
:104710008083FE01E75BFF4F808191810197F1F774
:10472000FE01E75BFF4F91838083DE01A55BBF4FF6
:10473000FE01E55BFF4F80819181019711969C936B
:104740008E93FE01E55BFF4F808191810097D1F64A
:1047500027C08E01055B1F4FFE01E35BFF4F6081A9
:104760007181828193810E944900DC01CB01F801B3
:1047700091838083DE01A95BBF4FFE01E55BFF4FA4
:10478000808191818D939C93FE01E95BFF4F808135
:1047900091810197F1F7FE01E95BFF4F91838083DF
:1047A0008091480364E041E00E94003B809148030F
:1047B00065E040E00E94003B8091480366E040E0F5
:1047C0000E94003B8091480367E040E00E94003B6C
:1047D000FE01ED5BFE4F8081882F90E0A0E0B0E00D
:1047E000BC01CD010E94A904DC01CB01FE01ED5BFF
:1047F000FF4F80839183A283B3838E01015C1F4F9F
:10480000FE01ED5BFF4F608171818281938120E029
:1048100030E04AE753E40E941F02DC01CB01F801BB
:1048200080839183A283B383FE01FF9660817181AF
:104830008281938120E030E040E85FE30E9425041C
:1048400088232CF481E090E09EAF8DAF46C0FE013E
:10485000FF96608171818281938120E03FEF4FE775
:1048600057E40E94C503181664F5FE01ED5BFF4F87
:10487000608171818281938120E030E040E251E4E7
:104880000E941F02DC01CB01BC01CD010E94490046
:10489000DC01CB019EAF8DAF0FC089E190E09CAFF2
:1048A0008BAF8BAD9CAD0197F1F79CAF8BAF8DAD0E
:1048B0009EAD01979EAF8DAF8DAD9EAD009769F710
:1048C00067C2FE01FF9660817181828193810E949F
:1048D0004900DC01CB019EAF8DAF8DAD9EAD9AAF8F
:1048E00089AF89AD9AAD0197F1F79AAF89AF50C200
:1048F0008091480360E040E00E94003B80914803C3
:1049000061E040E00E94003B8091480362E040E0AB
:104910000E94003B8091480363E041E00E94003B1D
:10492000FE01ED5BFE4F8081882F90E0A0E0B0E0BB
:10493000BC01CD010E94A904DC01CB018DAB9EAB73
:10494000AFABB8AF6DA97EA98FA998AD20E030E0DC
:104950004AE753E40E941F02DC01CB0189AB9AAB0A
:10496000ABABBCAB69A97AA98BA99CA920E030E0CC
:1049700040E85FE30E94250488232CF481E090E066
:1049800098AB8FA73FC069A97AA98BA99CA920E001
:104990003FEF4FE757E40E94C50318164CF56DA989
:1049A0007EA98FA998AD20E030E040E251E40E945A
:1049B0001F02DC01CB01BC01CD010E944900DC01DA
:1049C000CB0198AB8FA70FC089E190E09EA78DA780
:1049D0008DA59EA50197F1F79EA78DA78FA598A9F4
:1049E000019798AB8FA78FA598A9009769F714C076
:1049F00069A97AA98BA99CA90E944900DC01CB0175
:104A000098AB8FA78FA598A99CA78BA78BA59CA5D2
:104A10000197F1F79CA78BA78091480360E040E0E5
:104A20000E94003B8091480361E040E00E94003B0F
:104A30008091480362E041E00E94003B809148037E
:104A400063E040E00E94003BFE01ED5BFE4F808191
:104A5000882F90E0A0E0B0E0BC01CD010E94A90445
:104A6000DC01CB018FA398A7A9A7BAA76FA178A54E
:104A700089A59AA520E030E04AE753E40E941F028E
:104A8000DC01CB018BA39CA3ADA3BEA36BA17CA136
:104A90008DA19EA120E030E040E85FE30E94250464
:104AA00088232CF481E090E09AA389A33FC06BA1F6
:104AB0007CA18DA19EA120E03FEF4FE757E40E942B
:104AC000C50318164CF56FA178A589A59AA520E015
:104AD00030E040E251E40E941F02DC01CB01BC0146
:104AE000CD010E944900DC01CB019AA389A30FC02C
:104AF00089E190E098A38F8F8F8D98A10197F1F7AE
:104B000098A38F8F89A19AA101979AA389A389A1BC
:104B10009AA1009769F714C06BA17CA18DA19EA1F9
:104B20000E944900DC01CB019AA389A389A19AA123
:104B30009E8F8D8F8D8D9E8D0197F1F79E8F8D8F1E
:104B40008091480360E040E00E94003B8091480370
:104B500061E041E00E94003B8091480362E040E058
:104B60000E94003B8091480363E040E00E94003BCC
:104B7000FE01ED5BFE4F8081882F90E0A0E0B0E069
:104B8000BC01CD010E94A904DC01CB01898F9A8F61
:104B9000AB8FBC8F698D7A8D8B8D9C8D20E030E042
:104BA0004AE753E40E941F02DC01CB018D8B9E8BF0
:104BB000AF8BB88F6D897E898F89988D20E030E02A
:104BC00040E85FE30E94250488232CF481E090E014
:104BD0009C8B8B8B3FC06D897E898F89988D20E05F
:104BE0003FEF4FE757E40E94C50318164CF5698D57
:104BF0007A8D8B8D9C8D20E030E040E251E40E9464
:104C00001F02DC01CB01BC01CD010E944900DC0187
:104C1000CB019C8B8B8B0FC089E190E09A8B898BA9
:104C200089899A890197F1F79A8B898B8B899C895D
:104C300001979C8B8B8B8B899C89009769F714C09B
:104C40006D897E898F89988D0E944900DC01CB0196
:104C50009C8B8B8B8B899C89988B8F878F85988970
:104C60000197F1F7988B8F878091480360E041E0CE
:104C70000E94003B8091480361E040E00E94003BBD
:104C80008091480362E040E00E94003B809148032D
:104C900063E040E00E94003BFE01ED5BFE4F80813F
:104CA000882F90E0A0E0B0E0BC01CD010E94A904F3
:104CB000DC01CB018B879C87AD87BE876B857C85AC
:104CC0008D859E8520E030E04AE753E40E941F0274
:104CD000DC01CB018F839887A987BA876F8178859C
:104CE00089859A8520E030E040E85FE30E94250452
:104CF00088232CF481E090E09E838D833FC06F81F8
:104D0000788589859A8520E03FEF4FE757E40E9438
:104D1000C50318164CF56B857C858D859E8520E036
:104D200030E040E251E40E941F02DC01CB01BC01F3
:104D3000CD010E944900DC01CB019E838D830FC011
:104D400089E190E09C838B838B819C810197F1F7B3
:104D50009C838B838D819E8101979E838D838D8122
:104D60009E81009769F714C06F81788589859A853F
:104D70000E944900DC01CB019E838D838D819E8141
:104D80009A83898389819A810197F1F79A8389832C
:104D9000C55BDE4F0FB6F894DEBF0FBECDBFCF911F
:104DA000DF911F910F910895DF93CF93CDB7DEB7B9
:104DB0000E94B631CF91DF910895DF93CF930F9288
:104DC000CDB7DEB7898389810E94E1310F90CF9101
:104DD000DF910895DF93CF9300D0CDB7DEB79A83EC
:104DE00089830E94F03889819A810E9437320F901E
:104DF0000F90CF91DF910895DF93CF93CDB7DEB7BA
:104E00000E94FB31CF91DF910895DF93CF9300D0C3
:104E1000CDB7DEB79A83898389819A810E940E3249
:104E20000F900F90CF91DF910895DF93CF93CDB77F
:104E3000DEB7E4E3F0E0808163E041E00E94003B04
:104E4000E4E3F0E0808164E041E00E94003B0E94E6
:104E50006033CF91DF910895DF93CF93CDB7DEB765
:104E60000E948C33CF91DF910895DF93CF9300D0D0
:104E70000F92CDB7DEB789838981282F30E03B833D
:104E80002A838A819B81009731F02A813B812130DE
:104E9000310561F015C082E063E041E00E94003B13
:104EA00082E064E040E00E94003B0AC082E064E0EF
:104EB00041E00E94003B82E063E040E00E94003B52
:104EC0000F900F900F90CF91DF910895DF93CF93C4
:104ED000CDB7DEB782E063E040E00E94003B82E0B5
:104EE00064E040E00E94003B0E94BA33CF91DF9122
:104EF0000895DF93CF930F92CDB7DEB78983898171
:104F00000E94A1330F90CF91DF910895DF93CF934B
:104F1000CDB7DEB783E065E041E00E941D3A0E9414
:104F20007C340E94CE34CF91DF910895DF93CF93EC
:104F30000F92CDB7DEB7898389810E94AC340F9080
:104F4000CF91DF910895DF93CF93CDB7DEB782E0A5
:104F50000E94BC37CF91DF910895DF93CF93CDB7F7
:104F6000DEB762970FB6F894DEBF0FBECDBF888B59
:104F7000698B4A8B88898E7F8F870E94DD378830C6
:104F800009F089C08F850E940738883109F083C0F5
:104F900089890E940738883209F07DC08A890E9479
:104FA0000738883209F077C00E94F63780E090E039
:104FB000A0E2B1E48B879C87AD87BE876B857C853B
:104FC0008D859E8520E030E04AE753E40E941F0271
:104FD000DC01CB018F839887A987BA876F81788599
:104FE00089859A8520E030E040E85FE30E9425044F
:104FF00088232CF481E090E09E838D833FC06F81F5
:10500000788589859A8520E03FEF4FE757E40E9435
:10501000C50318164CF56B857C858D859E8520E033
:1050200030E040E251E40E941F02DC01CB01BC01F0
:10503000CD010E944900DC01CB019E838D830FC00E
:1050400089E190E09C838B838B819C810197F1F7B0
:105050009C838B838D819E8101979E838D838D811F
:105060009E81009769F714C06F81788589859A853C
:105070000E944900DC01CB019E838D838D819E813E
:105080009A83898389819A810197F1F79A83898329
:1050900080E00E94263162960FB6F894DEBF0FBE04
:1050A000CDBFCF91DF910895DF93CF9300D000D093
:1050B0000F92CDB7DEB78C836D838C818E7F8A8310
:1050C0008C81816089831B820E94DD378830E1F406
:1050D0008A810E9407388831B9F48D810E9407388F
:1050E000883291F40E94DD37803171F489810E9409
:1050F0000738803449F4CE0103960E9446380E9456
:10510000F63782E00E9426318B810F900F900F902E
:105110000F900F90CF91DF910895DF93CF93CDB78C
:10512000DEB780E063E041E00E941D3A80E063E08A
:1051300040E00E94003BCF91DF910895DF93CF9331
:105140000F92CDB7DEB789838981882F90E00097D1
:1051500029F480E063E041E00E94003B0F90CF9192
:10516000DF910895DF93CF930F92CDB7DEB7898398
:105170008981882F90E0009729F480E063E040E087
:105180000E94003B0F90CF91DF910895DF93CF9362
:105190000F92CDB7DEB789838981882F90E0009781
:1051A00021F480E063E00E94F93C0F90CF91DF9101
:1051B0000895DF93CF93CDB7DEB70E94873DCF919F
:1051C000DF910895DF93CF93CDB7DEB728970FB661
:1051D000F894DEBF0FBECDBF18861F8280E090E03E
:1051E000A0E0B0E08B839C83AD83BE8381E00E940E
:1051F0009C3D98878F838F819885CC01A0E0B0E09B
:10520000BC01CD010E94A904DC01CB01BC01CD0190
:105210002AE939E949E950E40E941F02DC01CB0187
:105220008B839C83AD83BE836B817C818D819E81CA
:1052300020E030E040E251E40E941903DC01CB01A0
:10524000BC01CD010E944900DC01CB019A83898316
:1052500089819A8128960FB6F894DEBF0FBECDBF24
:10526000CF91DF910895DF93CF930F92CDB7DEB743
:1052700082E061E00E94533C882391F082E060E08C
:105280000E94533C882361F082E065E00E94533C19
:10529000882331F080E060E00E94533C882319F4B9
:1052A00081E0898301C0198289810F90CF91DF91BC
:1052B0000895DF93CF930F92CDB7DEB78FEF898339
:1052C00082E061E00E94533C882311F419821AC0E5
:1052D00082E060E00E94533C882319F481E08983D6
:1052E00011C082E065E00E94533C882319F482E0FB
:1052F000898308C080E060E00E94533C882311F459
:1053000083E0898389810F90CF91DF910895DF93A6
:10531000CF9300D0CDB7DEB78A838FEF898381E04A
:1053200064E040E00E94003B81E065E041E00E94D3
:10533000003B81E066E041E00E94003B81E067E0E5
:1053400041E00E94003B0E945929982F8A819817BA
:1053500009F4198281E064E041E00E94003B81E0B1
:1053600065E040E00E94003B81E066E041E00E9491
:10537000003B81E067E041E00E94003B0E94592928
:10538000982F8A81981711F481E0898381E064E085
:1053900041E00E94003B81E065E041E00E94003B6B
:1053A00081E066E040E00E94003B81E067E041E090
:1053B0000E94003B0E945929982F8A81981711F466
:1053C00082E0898381E064E041E00E94003B81E06B
:1053D00065E041E00E94003B81E066E041E00E9420
:1053E000003B81E067E040E00E94003B0E945929B9
:1053F000982F8A81981711F483E0898389810F900F
:105400000F90CF91DF910895DF93CF93CDB7DEB7A3
:1054100082E061E040E00E941D3A82E060E040E00E
:105420000E941D3A82E065E040E00E941D3A80E063
:1054300060E040E00E941D3A82E061E00E94763D1B
:1054400082E060E00E94763D82E065E00E94763D69
:1054500080E060E00E94763D81E064E041E00E94EF
:105460001D3A81E065E041E00E941D3A81E066E07E
:1054700041E00E941D3A81E067E041E00E941D3A50
:1054800081E064E040E00E94003B81E065E040E0B4
:105490000E94003B81E066E040E00E94003B81E02A
:1054A00067E040E00E94003BCF91DF910895DF93D9
:1054B000CF9300D000D0CDB7DEB78FEF8B838FEFC7
:1054C0008A830E94042A0E943329813001F50E94B8
:1054D00059298B838B810E9487298A838B81482F4E
:1054E000552747FD50958A81282F332727FD309572
:1054F000CA01880F991F880F991F820F931FFC0103
:10550000EE52FD4F8081898389818C8302C08FEFA9
:105510008C838C810F900F900F900F90CF91DF9123
:105520000895DF93CF93CDB7DEB781E061E041E02E
:105530000E941D3A81E062E041E00E941D3A81E054
:1055400063E041E00E941D3A80E064E041E00E9497
:105550001D3A80E065E041E00E941D3A80E066E08F
:1055600041E00E941D3A80E067E041E00E941D3A60
:1055700081E061E040E00E94003B81E062E040E0C9
:105580000E94003BCF91DF910895DF93CF93CDB779
:10559000DEB76F970FB6F894DEBF0FBECDBF8F8F0B
:1055A0008F8D9AE0692F0E94FD3D892F8295807F23
:1055B0008E8F8F8D9AE0692F0E94FD3D8295807FAE
:1055C0008D8F8F8D843608F002C181E061E041E06B
:1055D0000E94003B81E062E040E00E94003B80E0EE
:1055E00060EF4E8D0E94E33B80E090E0A0E8BFE3D7
:1055F000898F9A8FAB8FBC8F698D7A8D8B8D9C8DA7
:1056000020E030E04AE753E40E941F02DC01CB01B6
:105610008D8B9E8BAF8BB88F6D897E898F89988D8E
:1056200020E030E040E85FE30E94250488232CF46A
:1056300081E090E09C8B8B8B3FC06D897E898F8948
:10564000988D20E03FEF4FE757E40E94C5031816FE
:105650004CF5698D7A8D8B8D9C8D20E030E040E299
:1056600051E40E941F02DC01CB01BC01CD010E946C
:105670004900DC01CB019C8B8B8B0FC089E190E052
:105680009A8B898B89899A890197F1F79A8B898BF3
:105690008B899C8901979C8B8B8B8B899C8900972C
:1056A00069F714C06D897E898F89988D0E944900A1
:1056B000DC01CB019C8B8B8B8B899C89988B8F8792
:1056C0008F8598890197F1F7988B8F8781E061E04A
:1056D00040E00E94003B81E062E041E00E94003B2C
:1056E00080E060EF4D8D0E94E33B80E090E0A0E819
:1056F000BFE38B879C87AD87BE876B857C858D8557
:105700009E8520E030E04AE753E40E941F02DC015E
:10571000CB018F839887A987BA876F817885898520
:105720009A8520E030E040E85FE30E94250488236A
:105730002CF481E090E09E838D833FC06F8178855B
:1057400089859A8520E03FEF4FE757E40E94C50323
:1057500018164CF56B857C858D859E8520E030E0A4
:1057600040E251E40E941F02DC01CB01BC01CD01EB
:105770000E944900DC01CB019E838D830FC089E12B
:1057800090E09C838B838B819C810197F1F79C83B4
:105790008B838D819E8101979E838D838D819E81D8
:1057A000009769F714C06F81788589859A850E9472
:1057B0004900DC01CB019E838D838D819E819A837C
:1057C000898389819A810197F1F79A8389836F96FA
:1057D0000FB6F894DEBF0FBECDBFCF91DF91089515
:1057E000DF93CF93CDB7DEB767970FB6F894DEBFE0
:1057F0000FBECDBF8B8B4C8B5D8B6E8B7F8B1F86D3
:10580000188A198A1A8A1F86188A198A1A8A80C0E1
:105810008B890E94C52A80E090E0A0E8BFE38B87D7
:105820009C87AD87BE876B857C858D859E8520E0B6
:1058300030E04AE753E40E941F02DC01CB018F8372
:105840009887A987BA876F81788589859A8520E0AE
:1058500030E040E85FE30E94250488232CF481E0D7
:1058600090E09E838D833FC06F81788589859A857E
:1058700020E03FEF4FE757E40E94C50318164CF5B0
:105880006B857C858D859E8520E030E040E251E48B
:105890000E941F02DC01CB01BC01CD010E94490026
:1058A000DC01CB019E838D830FC089E190E09C8356
:1058B0008B838B819C810197F1F79C838B838D81F6
:1058C0009E8101979E838D838D819E81009769F7CC
:1058D00014C06F81788589859A850E944900DC0112
:1058E000CB019E838D838D819E819A83898389815B
:1058F0009A810197F1F79A8389838F859889A9897D
:10590000BA890396A11DB11D8F87988BA98BBA8B7D
:105910002F85388949895A898C899D89AE89BF89A3
:10592000281739074A075B0708F472CF67960FB646
:10593000F894DEBF0FBECDBFCF91DF910895DF9306
:10594000CF93CDB7DEB7A6970FB6F894DEBF0FBEE4
:10595000CDBF81E063E041E00E94003B80E090E049
:10596000A0E8BFE38BA39CA3ADA3BEA36BA17CA1C6
:105970008DA19EA12BEA3AEA4AEA5EE30E941F0249
:10598000DC01CB018F8F98A3A9A3BAA36F8D78A157
:1059900089A19AA120E030E040E85FE30E9425045D
:1059A00088231CF481E08E8F91C06F8D78A189A12E
:1059B0009AA120E030E04FE753E40E94C503181697
:1059C0000CF07BC06BA17CA18DA19EA120E030E0FA
:1059D0004AE754E40E941903DC01CB018A8F9B8FB4
:1059E000AC8FBD8F6A8D7B8D8C8D9D8D20E030E0DE
:1059F0004AE753E40E941F02DC01CB018E8B9F8B90
:105A0000A88FB98F6E897F89888D998D20E030E0CD
:105A100040E85FE30E94250488232CF481E090E0B5
:105A20009D8B8C8B3FC06E897F89888D998D20E0FE
:105A30003FEF4FE757E40E94C50318164CF56A8DF7
:105A40007B8D8C8D9D8D20E030E040E251E40E9402
:105A50001F02DC01CB01BC01CD010E944900DC0129
:105A6000CB019D8B8C8B0FC089E190E09B8B8A8B47
:105A70008A899B890197F1F79B8B8A8B8C899D89F9
:105A800001979D8B8C8B8C899D89009769F724C029
:105A90006E897F89888D998D0E944900DC01CB0138
:105AA0009D8B8C8B8C899D89998B888B8889998912
:105AB0000197F1F7998B888B0FC06F8D78A189A121
:105AC0009AA10E944900DC01CB018E8F8E8D8F87B9
:105AD0008F858A95F1F78F8781E063E040E00E942F
